{
  "_format": "hh-sol-artifact-1",
  "contractName": "CrowdFunding",
  "sourceName": "contracts/CrowdFunding.sol",
  "abi": [
    {
      "inputs": [
        {
          "internalType": "uint256",
          "name": "",
          "type": "uint256"
        }
      ],
      "name": "campaigns",
      "outputs": [
        {
          "internalType": "address",
          "name": "owner",
          "type": "address"
        },
        {
          "internalType": "string",
          "name": "title",
          "type": "string"
        },
        {
          "internalType": "string",
          "name": "description",
          "type": "string"
        },
        {
          "internalType": "uint256",
          "name": "target",
          "type": "uint256"
        },
        {
          "internalType": "uint256",
          "name": "deadline",
          "type": "uint256"
        },
        {
          "internalType": "uint256",
          "name": "amountCollected",
          "type": "uint256"
        }
      ],
      "stateMutability": "view",
      "type": "function"
    },
    {
      "inputs": [
        {
          "internalType": "address",
          "name": "_owner",
          "type": "address"
        },
        {
          "internalType": "string",
          "name": "_title",
          "type": "string"
        },
        {
          "internalType": "string",
          "name": "_description",
          "type": "string"
        },
        {
          "internalType": "uint256",
          "name": "_target",
          "type": "uint256"
        },
        {
          "internalType": "uint256",
          "name": "_deadline",
          "type": "uint256"
        }
      ],
      "name": "createCampaign",
      "outputs": [
        {
          "internalType": "uint256",
          "name": "",
          "type": "uint256"
        }
      ],
      "stateMutability": "nonpayable",
      "type": "function"
    },
    {
      "inputs": [
        {
          "internalType": "uint256",
          "name": "_id",
          "type": "uint256"
        }
      ],
      "name": "donateToCampaign",
      "outputs": [],
      "stateMutability": "payable",
      "type": "function"
    },
    {
      "inputs": [],
      "name": "getCampaigns",
      "outputs": [
        {
          "components": [
            {
              "internalType": "address",
              "name": "owner",
              "type": "address"
            },
            {
              "internalType": "string",
              "name": "title",
              "type": "string"
            },
            {
              "internalType": "string",
              "name": "description",
              "type": "string"
            },
            {
              "internalType": "uint256",
              "name": "target",
              "type": "uint256"
            },
            {
              "internalType": "uint256",
              "name": "deadline",
              "type": "uint256"
            },
            {
              "internalType": "uint256",
              "name": "amountCollected",
              "type": "uint256"
            },
            {
              "internalType": "address[]",
              "name": "donators",
              "type": "address[]"
            },
            {
              "internalType": "uint256[]",
              "name": "donations",
              "type": "uint256[]"
            }
          ],
          "internalType": "struct CrowdFunding.Campaign[]",
          "name": "",
          "type": "tuple[]"
        }
      ],
      "stateMutability": "view",
      "type": "function"
    },
    {
      "inputs": [
        {
          "internalType": "uint256",
          "name": "_id",
          "type": "uint256"
        }
      ],
      "name": "getDonators",
      "outputs": [
        {
          "internalType": "address[]",
          "name": "",
          "type": "address[]"
        },
        {
          "internalType": "uint256[]",
          "name": "",
          "type": "uint256[]"
        }
      ],
      "stateMutability": "view",
      "type": "function"
    },
    {
      "inputs": [],
      "name": "numberOfCampaigns",
      "outputs": [
        {
          "internalType": "uint256",
          "name": "",
          "type": "uint256"
        }
      ],
      "stateMutability": "view",
      "type": "function"
    }
  ],
  "bytecode": "0x60806040526000600155348015601457600080fd5b50611780806100246000396000f3fe6080604052600436106100555760003560e01c8063075843c31461005a57806307ca140d146100975780630fa91fa9146100c2578063141961bc1461010057806342a4fda814610142578063a6b036331461015e575b600080fd5b34801561006657600080fd5b50610081600480360381019061007c9190610bfb565b610189565b60405161008e9190610cbd565b60405180910390f35b3480156100a357600080fd5b506100ac61029a565b6040516100b99190610cbd565b60405180910390f35b3480156100ce57600080fd5b506100e960048036038101906100e49190610cd8565b6102a0565b6040516100f7929190610e81565b60405180910390f35b34801561010c57600080fd5b5061012760048036038101906101229190610cd8565b6103a5565b60405161013996959493929190610f46565b60405180910390f35b61015c60048036038101906101579190610cd8565b610511565b005b34801561016a57600080fd5b50610173610674565b6040516101809190611264565b60405180910390f35b60004282116101cd576040517f08c379a00000000000000000000000000000000000000000000000000000000081526004016101c4906112f8565b60405180910390fd5b600080600060015481526020019081526020016000209050868160000160006101000a81548173ffffffffffffffffffffffffffffffffffffffff021916908373ffffffffffffffffffffffffffffffffffffffff160217905550858160010190816102399190611524565b508481600201908161024b9190611524565b50838160030181905550828160040181905550600081600501819055506001600081548092919061027b90611625565b91905055506001805461028e919061166d565b91505095945050505050565b60015481565b6060806000806000858152602001908152602001600020905080600601816007018180548060200260200160405190810160405280929190818152602001828054801561034257602002820191906000526020600020905b8160009054906101000a900473ffffffffffffffffffffffffffffffffffffffff1673ffffffffffffffffffffffffffffffffffffffff16815260200190600101908083116102f8575b505050505091508080548060200260200160405190810160405280929190818152602001828054801561039457602002820191906000526020600020905b815481526020019060010190808311610380575b505050505090509250925050915091565b60006020528060005260406000206000915090508060000160009054906101000a900473ffffffffffffffffffffffffffffffffffffffff16908060010180546103ee90611347565b80601f016020809104026020016040519081016040528092919081815260200182805461041a90611347565b80156104675780601f1061043c57610100808354040283529160200191610467565b820191906000526020600020905b81548152906001019060200180831161044a57829003601f168201915b50505050509080600201805461047c90611347565b80601f01602080910402602001604051908101604052809291908181526020018280546104a890611347565b80156104f55780601f106104ca576101008083540402835291602001916104f5565b820191906000526020600020905b8154815290600101906020018083116104d857829003601f168201915b5050505050908060030154908060040154908060050154905086565b60003490506000806000848152602001908152602001600020905080600601339080600181540180825580915050600190039060005260206000200160009091909190916101000a81548173ffffffffffffffffffffffffffffffffffffffff021916908373ffffffffffffffffffffffffffffffffffffffff1602179055508060070182908060018154018082558091505060019003906000526020600020016000909190919091505560008160000160009054906101000a900473ffffffffffffffffffffffffffffffffffffffff1673ffffffffffffffffffffffffffffffffffffffff1683604051610606906116d2565b60006040518083038185875af1925050503d8060008114610643576040519150601f19603f3d011682016040523d82523d6000602084013e610648565b606091505b50509050801561066e578282600501600082825461066691906116e7565b925050819055505b50505050565b6060600060015467ffffffffffffffff81111561069457610693610a9a565b5b6040519080825280602002602001820160405280156106cd57816020015b6106ba6109b2565b8152602001906001900390816106b25790505b50905060005b6001548110156109aa576000806000838152602001908152602001600020905080604051806101000160405290816000820160009054906101000a900473ffffffffffffffffffffffffffffffffffffffff1673ffffffffffffffffffffffffffffffffffffffff1673ffffffffffffffffffffffffffffffffffffffff16815260200160018201805461076690611347565b80601f016020809104026020016040519081016040528092919081815260200182805461079290611347565b80156107df5780601f106107b4576101008083540402835291602001916107df565b820191906000526020600020905b8154815290600101906020018083116107c257829003601f168201915b505050505081526020016002820180546107f890611347565b80601f016020809104026020016040519081016040528092919081815260200182805461082490611347565b80156108715780601f1061084657610100808354040283529160200191610871565b820191906000526020600020905b81548152906001019060200180831161085457829003601f168201915b505050505081526020016003820154815260200160048201548152602001600582015481526020016006820180548060200260200160405190810160405280929190818152602001828054801561091d57602002820191906000526020600020905b8160009054906101000a900473ffffffffffffffffffffffffffffffffffffffff1673ffffffffffffffffffffffffffffffffffffffff16815260200190600101908083116108d3575b505050505081526020016007820180548060200260200160405190810160405280929190818152602001828054801561097557602002820191906000526020600020905b815481526020019060010190808311610961575b5050505050815250508383815181106109915761099061171b565b5b60200260200101819052505080806001019150506106d3565b508091505090565b604051806101000160405280600073ffffffffffffffffffffffffffffffffffffffff168152602001606081526020016060815260200160008152602001600081526020016000815260200160608152602001606081525090565b6000604051905090565b600080fd5b600080fd5b600073ffffffffffffffffffffffffffffffffffffffff82169050919050565b6000610a4c82610a21565b9050919050565b610a5c81610a41565b8114610a6757600080fd5b50565b600081359050610a7981610a53565b92915050565b600080fd5b600080fd5b6000601f19601f8301169050919050565b7f4e487b7100000000000000000000000000000000000000000000000000000000600052604160045260246000fd5b610ad282610a89565b810181811067ffffffffffffffff82111715610af157610af0610a9a565b5b80604052505050565b6000610b04610a0d565b9050610b108282610ac9565b919050565b600067ffffffffffffffff821115610b3057610b2f610a9a565b5b610b3982610a89565b9050602081019050919050565b82818337600083830152505050565b6000610b68610b6384610b15565b610afa565b905082815260208101848484011115610b8457610b83610a84565b5b610b8f848285610b46565b509392505050565b600082601f830112610bac57610bab610a7f565b5b8135610bbc848260208601610b55565b91505092915050565b6000819050919050565b610bd881610bc5565b8114610be357600080fd5b50565b600081359050610bf581610bcf565b92915050565b600080600080600060a08688031215610c1757610c16610a17565b5b6000610c2588828901610a6a565b955050602086013567ffffffffffffffff811115610c4657610c45610a1c565b5b610c5288828901610b97565b945050604086013567ffffffffffffffff811115610c7357610c72610a1c565b5b610c7f88828901610b97565b9350506060610c9088828901610be6565b9250506080610ca188828901610be6565b9150509295509295909350565b610cb781610bc5565b82525050565b6000602082019050610cd26000830184610cae565b92915050565b600060208284031215610cee57610ced610a17565b5b6000610cfc84828501610be6565b91505092915050565b600081519050919050565b600082825260208201905092915050565b6000819050602082019050919050565b610d3a81610a41565b82525050565b6000610d4c8383610d31565b60208301905092915050565b6000602082019050919050565b6000610d7082610d05565b610d7a8185610d10565b9350610d8583610d21565b8060005b83811015610db6578151610d9d8882610d40565b9750610da883610d58565b925050600181019050610d89565b5085935050505092915050565b600081519050919050565b600082825260208201905092915050565b6000819050602082019050919050565b610df881610bc5565b82525050565b6000610e0a8383610def565b60208301905092915050565b6000602082019050919050565b6000610e2e82610dc3565b610e388185610dce565b9350610e4383610ddf565b8060005b83811015610e74578151610e5b8882610dfe565b9750610e6683610e16565b925050600181019050610e47565b5085935050505092915050565b60006040820190508181036000830152610e9b8185610d65565b90508181036020830152610eaf8184610e23565b90509392505050565b610ec181610a41565b82525050565b600081519050919050565b600082825260208201905092915050565b60005b83811015610f01578082015181840152602081019050610ee6565b60008484015250505050565b6000610f1882610ec7565b610f228185610ed2565b9350610f32818560208601610ee3565b610f3b81610a89565b840191505092915050565b600060c082019050610f5b6000830189610eb8565b8181036020830152610f6d8188610f0d565b90508181036040830152610f818187610f0d565b9050610f906060830186610cae565b610f9d6080830185610cae565b610faa60a0830184610cae565b979650505050505050565b600081519050919050565b600082825260208201905092915050565b6000819050602082019050919050565b600082825260208201905092915050565b6000610ffd82610ec7565b6110078185610fe1565b9350611017818560208601610ee3565b61102081610a89565b840191505092915050565b600082825260208201905092915050565b600061104782610d05565b611051818561102b565b935061105c83610d21565b8060005b8381101561108d5781516110748882610d40565b975061107f83610d58565b925050600181019050611060565b5085935050505092915050565b600082825260208201905092915050565b60006110b682610dc3565b6110c0818561109a565b93506110cb83610ddf565b8060005b838110156110fc5781516110e38882610dfe565b97506110ee83610e16565b9250506001810190506110cf565b5085935050505092915050565b6000610100830160008301516111226000860182610d31565b506020830151848203602086015261113a8282610ff2565b915050604083015184820360408601526111548282610ff2565b91505060608301516111696060860182610def565b50608083015161117c6080860182610def565b5060a083015161118f60a0860182610def565b5060c083015184820360c08601526111a7828261103c565b91505060e083015184820360e08601526111c182826110ab565b9150508091505092915050565b60006111da8383611109565b905092915050565b6000602082019050919050565b60006111fa82610fb5565b6112048185610fc0565b93508360208202850161121685610fd1565b8060005b85811015611252578484038952815161123385826111ce565b945061123e836111e2565b925060208a0199505060018101905061121a565b50829750879550505050505092915050565b6000602082019050818103600083015261127e81846111ef565b905092915050565b7f54686520646561646c696e652073686f756c642062652061206461746520696e60008201527f20746865206675747572652e0000000000000000000000000000000000000000602082015250565b60006112e2602c83610ed2565b91506112ed82611286565b604082019050919050565b60006020820190508181036000830152611311816112d5565b9050919050565b7f4e487b7100000000000000000000000000000000000000000000000000000000600052602260045260246000fd5b6000600282049050600182168061135f57607f821691505b60208210810361137257611371611318565b5b50919050565b60008190508160005260206000209050919050565b60006020601f8301049050919050565b600082821b905092915050565b6000600883026113da7fffffffffffffffffffffffffffffffffffffffffffffffffffffffffffffffff8261139d565b6113e4868361139d565b95508019841693508086168417925050509392505050565b6000819050919050565b600061142161141c61141784610bc5565b6113fc565b610bc5565b9050919050565b6000819050919050565b61143b83611406565b61144f61144782611428565b8484546113aa565b825550505050565b600090565b611464611457565b61146f818484611432565b505050565b5b818110156114935761148860008261145c565b600181019050611475565b5050565b601f8211156114d8576114a981611378565b6114b28461138d565b810160208510156114c1578190505b6114d56114cd8561138d565b830182611474565b50505b505050565b600082821c905092915050565b60006114fb600019846008026114dd565b1980831691505092915050565b600061151483836114ea565b9150826002028217905092915050565b61152d82610ec7565b67ffffffffffffffff81111561154657611545610a9a565b5b6115508254611347565b61155b828285611497565b600060209050601f83116001811461158e576000841561157c578287015190505b6115868582611508565b8655506115ee565b601f19841661159c86611378565b60005b828110156115c45784890151825560018201915060208501945060208101905061159f565b868310156115e157848901516115dd601f8916826114ea565b8355505b6001600288020188555050505b505050505050565b7f4e487b7100000000000000000000000000000000000000000000000000000000600052601160045260246000fd5b600061163082610bc5565b91507fffffffffffffffffffffffffffffffffffffffffffffffffffffffffffffffff8203611662576116616115f6565b5b600182019050919050565b600061167882610bc5565b915061168383610bc5565b925082820390508181111561169b5761169a6115f6565b5b92915050565b600081905092915050565b50565b60006116bc6000836116a1565b91506116c7826116ac565b600082019050919050565b60006116dd826116af565b9150819050919050565b60006116f282610bc5565b91506116fd83610bc5565b9250828201905080821115611715576117146115f6565b5b92915050565b7f4e487b7100000000000000000000000000000000000000000000000000000000600052603260045260246000fdfea2646970667358221220e939ce2e43c6d8b83e28a289ee2049e00e6bcc53588ce47564eda56ab1de070364736f6c634300081c0033",
  "linkReferences": {},
  "deployedLinkReferences": {}
}